S01700004763634170706C69636174696F6E322E737265635A
S11300000C942A000C9419020C944A020C94470094
S11300100C9447000C9447000C9447000C94470040
S11300200C9447000C9447000C9447000C94470030
S11300300C9447000C9447000C9447000C94470020
S11300400C9447000C9447000C9447000C94470010
S11300500C94470011241FBECFE5D4E0DEBFCDBF12
S113006010E0A0E6B0E0ECEBFEE002C005900D92DB
S1130070AC3BB107D9F720E0ACEBB0E001C01D9276
S1130080AC3DB207E1F70E94A5020C945C070C9406
S1130090000098B39F70282F207F922B98BBC298A2
S11300A0C39A32E03A95F1F700C0C39896EF9A9557
S11300B0F1F728B32F7030E1839FC0011124822B04
S11300C088BBC39A82E08A95F1F700C0C39886E69C
S11300D09EE00197F1F70000089598B39F70282FD0
S11300E0207F922B98BBC29AC39A32E03A95F1F7DB
S11300F000C0C39896EF9A95F1F728B32F7030E1BA
S1130100839FC0011124822B88BBC39A82E08A9505
S1130110F1F700C0C39886E69EE00197F1F700006E
S113012008958FEF87BB2FEF8FE794E02150804035
S11301309040E1F700C0000083E30E94490082E39D
S11301400E94490088E20E9449008CE00E94490014
S113015081E00E94490086E69EE00197F1F70000E5
S113016082E80E9449000895CF93DF9300D0CDB771
S1130170DEB790E8998390EC9A83FE01E60FF11DB7
S11301809181890F0E9449000F900F90DF91CF91C8
S113019008950F931F93CF93FC018081882359F016
S11301A08F01C0E00E946D00CF5FF801EC0FF11DDC
S11301B080818111F7CFCF911F910F91089581E034
S11301C00E94490086E69EE00197F1F70000089539
S11301D00F931F93CF93DF93CDB7DEB760970FB61E
S11301E0F894DEBF0FBECDBF8C01CB014AE0BE0147
S11301F06F5F7F4F0E942707C8010E94C900CE018C
S113020001960E94C90080E690E00E94C9006096B1
S11302100FB6F894DEBF0FBECDBFDF91CF911F9113
S11302200F9108950E94DF006091D1007091D20077
S11302308091D3009091D4000E94A50582E690E0BD
S11302400E94E80061E080E00E94B4008091CD004B
S11302509091CE00892B29F48BE690E00E94C9008E
S1130260089584E790E00E94C90008950E94DF0089
S11302706091C9007091CA008091CB009091CC002C
S11302800E94A5058FE790E00E94E80061E080E00D
S11302900E94B4006091C5007091C6008091C700AF
S11302A09091C8000E94A5058CE890E00E94E800A7
S11302B008958E9A96988FEF9FE80197F1F700C002
S11302C00000969A08958E988699FECF869BFECF5D
S11302D08699FECF089588E090E0869BFECF23E9BF
S11302E02A95F1F700C0869B07C02091BC00220F1D
S11302F021602093BC0005C02091BC00220F2093F4
S1130300BC008699FECF019741F78091BC00089507
S1130310CF93DF9300D000D01F92CDB7DEB70E94F9
S1130320DF008091DA0090E02091D700AC01420F09
S1130330511D9A014091D900240F311D4091DB00D9
S1130340240F311D4091D80050E02417350729F0BF
S113035089E990E00E94C90050C04AE0BE016F5F85
S11303607F4F0E94270783EA90E00E94C900CE01D4
S113037001960E94C9008FEA90E00E94C900809112
S1130380D7004AE0BE016F5F7F4F90E00E942707CD
S1130390CE0101960E94C90080E690E00E94C90047
S11303A08091D9004AE0BE016F5F7F4F90E00E94C8
S11303B0270761E080E00E94B40081EB90E00E9496
S11303C0C900CE0101960E94C9008FEA90E00E9404
S11303D0C9008091DB004AE0BE016F5F7F4F90E06F
S11303E00E942707CE0101960E94C9008FED0E944A
S11303F06D0089EB90E00E94C9000F900F900F9060
S11304000F900F90DF91CF9108958BB78F7B8BBFA7
S113041078942FEF8FE995E0215080409040E1F7E8
S113042000C0000080E48ABF8BB780648BBFF8945F
S113043008951F920F920FB60F9211242F933F939A
S11304404F935F936F937F938F939F93AF93BF93D8
S1130450EF93FF938091D5009091D600019663E0CD
S113046070E00E94FF069093D6008093D5000E940E
S11304700502FF91EF91BF91AF919F918F917F9171
S11304806F915F914F913F912F910F900FBE0F90FD
S11304901F9018951F920F920FB60F9211242F934D
S11304A03F934F935F936F937F938F939F93AF93F8
S11304B0BF93EF93FF9381E090E02091CD003091C2
S11304C0CE00232B11F080E090E09093CE00809337
S11304D0CD000E940502FF91EF91BF91AF919F91D2
S11304E08F917F916F915F914F913F912F910F90D9
S11304F00FBE0F901F9018958091CF009091D0005F
S1130500892B11F00E9443048091BF009091C00098
S1130510892B11F00E945D048091BD009091BE0072
S1130520892B11F00E946B048091C3009091C40048
S1130530892B11F00E9485048091C1009091C20022
S1130540892B11F00E94A304089580E181BB81E20C
S11305508FBDCAE0CEBD0E9491000E94DF000E94C0
S11305602304C5BF80EC8BBF789481E487B987E806
S113057086B9E12CF12CC1E00F2EAA24AA94F3E051
S1130580BF2EF02D11E0D0E0912C812C03E00F2E32
S1130590F4E1CF2ED12CF02D87B18C2787B986B109
S11305A08C2786B9369A349BFECF84B195B1B501B8
S11305B0681B790B80E090E00E94DB0520E030E0CE
S11305C048EC52E40E94920620E030EC4FE754E4F9
S11305D00E9433052B013C016093D1007093D2003B
S11305E08093D3009093D4008091CD009091CE005D
S11305F0892B99F0212E3D2E20E030E048EC52E486
S1130600C301B2010E948D06181614F0292C382C4F
S11306102092CF003092D00021C020E030E040E2B0
S113062051E4C301B2010E942E0588238CF0212ECF
S11306303D2E20E030E048EC52E4C301B2010E94B8
S11306408D06181614F0292C382C922D832D02C0F7
S1130650912F8D2F9093CF008093D00087B18C275A
S113066087B986B18C2786B9369A349BFECF349AE3
S113067064B175B180E090E00E94DB0520E030E0D9
S113068048EC52E40E94920620E030EC4FE754E438
S11306900E9433059B01AC0160E070E088EC92E4B9
S11306A00E94C1042B013C016093C9007093CA00ED
S11306B08093CB009093CC0020E030E040E251E402
S11306C00E942E0588238CF0212E3D2E20E030E060
S11306D04EEB52E4C301B2010E948D06181614F0C9
S11306E0292C382C922D832D02C0912F8D2F90937D
S11306F0C3008093C40087B1802787B9369A349B9E
S1130700FECF349A64B175B180E090E00E94DB05BD
S113071020E030E048EC52E40E94920620E030EC05
S11307204FE754E40E9433059B01AC0160E070E0A4
S113073088EC92E40E94C1042B013C016093C50043
S11307407093C6008093C7009093C80020E030E007
S113075040E251E40E942E0588238CF0212E3D2E88
S113076020E030E04EEB52E4C301B2010E948D065A
S1130770181614F0292C382C922D832D02C0912F99
S11307808D2F9093C1008093C20087B1802787B9D1
S1130790C701B6010E94FF06892B91F50E945901F9
S11307A00E9463010E946B018093DA000E946B0136
S11307B08093D7000E946B018093D9000E946B0143
S11307C08093DB000E946B018093D8008091D90054
S11307D08251212F9D2F853110F4292D982D20939E
S11307E0BF009093C0008091DA008F50212F9D2F7D
S11307F0863510F4292D982D2093BD009093BE00CA
S11308002FEFE21AF20A8091D5009091D600813040
S1130810910541F08230910541F0892B41F40E9409
S1130820120105C00E94880102C00E9436010E9484
S11308307C028FEF9FE925E0815090402040E1F752
S113084000C00000A9CED79ADF9A08952BB3205890
S11308502BBB009759F020E030E0E3E3F7E0319759
S1130860F1F72F5F3F4F82179307B9F78BB3805887
S11308708BBBFFEF2FE382E0F15020408040E1F793
S113088000C00000089584E690E00E9426048CE2F3
S113089091E00E94260484E690E00E94260484E607
S11308A090E00E9426042FEF8FEB96E021508040C9
S11308B09040E1F700C0000008958CE291E00E94AE
S11308C026042FEF8FEB96E0215080409040E1F713
S11308D000C00000089584E690E00E94260484E6A7
S11308E090E00E94260484E690E00E94260484E6B8
S11308F090E00E9426042FEF8FEB96E02150804079
S11309009040E1F700C00000089584E690E00E9462
S113091026048CE291E00E9426048CE291E00E947D
S113092026048CE291E00E9426048CE291E00E946D
S113093026042FEF8FEB96E0215080409040E1F7A2
S113094000C00000089584E690E00E94260484E636
S113095090E00E9426048CE291E00E9426048CE23E
S113096091E00E9426048CE291E00E9426042FEF7D
S11309708FEB96E0215080409040E1F700C00000EA
S113098008955058BB27AA270E94D9040C945306F3
S11309900E94450638F00E944C0620F039F49F3F2F
S11309A019F426F40C9442060EF4E095E7FB0C943B
S11309B03C06E92F0E94640658F3BA1762077307CE
S11309C08407950720F079F4A6F50C9486060EF4B6
S11309D0E0950B2EBA2FA02D0B01B90190010C014B
S11309E0CA01A0011124FF27591B99F0593F50F463
S11309F0503E68F11A16F040A22F232F342F4427BB
S1130A00585FF3CF469537952795A795F0405395B2
S1130A10C9F77EF41F16BA0B620B730B840BBAF082
S1130A209150A1F0FF0FBB1F661F771F881FC2F7ED
S1130A300EC0BA0F621F731F841F48F48795779501
S1130A406795B795F7959E3F08F0B0CF9395880FBB
S1130A5008F09927EE0F9795879508950E94180638
S1130A6008F481E008950E9447050C9453060E94FF
S1130A704C0658F00E94450640F029F45F3F29F0E7
S1130A800C943C0651110C9487060C9442060E9467
S1130A90640668F39923B1F3552391F3951B550B21
S1130AA0BB27AA2762177307840738F09F5F5F4F3D
S1130AB0220F331F441FAA1FA9F335D00E2E3AF07C
S1130AC0E0E832D091505040E695001CCAF72BD094
S1130AD0FE2F29D0660F771F881FBB1F26173707E5
S1130AE04807AB07B0E809F0BB0B802DBF01FF2717
S1130AF093585F4F3AF09E3F510578F00C943C06B2
S1130B000C9487065F3FE4F3983ED4F3869577957B
S1130B106795B795F7959F5FC9F7880F911D9695CF
S1130B20879597F90895E1E0660F771F881FBB1F2B
S1130B30621773078407BA0720F0621B730B840BD8
S1130B40BA0BEE1F88F7E09508950E94AC056894EF
S1130B50B1110C94870608950E946C0688F09F5783
S1130B6098F0B92F9927B751B0F0E1F0660F771FCD
S1130B70881F991F1AF0BA95C9F714C0B13091F0C3
S1130B800E948606B1E008950C948606672F782F9C
S1130B908827B85F39F0B93FCCF386957795679588
S1130BA0B395D9F73EF490958095709561957F4FF4
S1130BB08F4F9F4F0895E89409C097FB3EF490959A
S1130BC08095709561957F4F8F4F9F4F9923A9F022
S1130BD0F92F96E9BB279395F695879577956795B1
S1130BE0B795F111F8CFFAF4BB0F11F460FF1BC0F5
S1130BF06F5F7F4F8F4F9F4F16C0882311F096E988
S1130C0011C0772321F09EE8872F762F05C0662335
S1130C1071F096E8862F70E060E02AF09A95660FEE
S1130C20771F881FDAF7880F9695879597F90895A7
S1130C30990F0008550FAA0BE0E8FEEF16161706E9
S1130C40E807F907C0F012161306E407F50798F051
S1130C50621B730B840B950B39F40A2661F0232B6A
S1130C60242B252B21F408950A2609F4A140A695E6
S1130C708FEF811D811D089597F99F6780E870E0CB
S1130C8060E008959FEF80EC089500240A941616FE
S1130C90170618060906089500240A941216130666
S1130CA0140605060895092E0394000C11F48823F4
S1130CB052F0BB0F40F4BF2B11F460FF04C06F5F10
S1130CC07F4F8F4F9F4F089557FD9058440F551FE6
S1130CD059F05F3F71F04795880F97FB991F61F0BA
S1130CE09F3F79F087950895121613061406551F31
S1130CF0F2CF4695F1DF08C0161617061806991F9D
S1130D00F1CF86957105610508940895E894BB2791
S1130D1066277727CB0197F908950E94180608F4EF
S1130D208FEF08950E94A5060C9453060E94450671
S1130D3038F00E944C0620F0952311F00C943C06E8
S1130D400C94420611240C9487060E94640670F3E6
S1130D50959FC1F3950F50E0551F629FF001729F5C
S1130D60BB27F00DB11D639FAA27F00DB11DAA1F6B
S1130D70649F6627B00DA11D661F829F2227B00DB8
S1130D80A11D621F739FB00DA11D621F839FA00D43
S1130D90611D221F749F3327A00D611D231F849F93
S1130DA0600D211D822F762F6A2F11249F575040EA
S1130DB09AF0F1F088234AF0EE0FFF1FBB1F661F65
S1130DC0771F881F91505040A9F79E3F510580F02E
S1130DD00C943C060C9487065F3FE4F3983ED4F3EE
S1130DE0869577956795B795F795E7959F5FC1F7D2
S1130DF0FE2B880F911D9695879597F9089597FB7B
S1130E00072E16F4009407D077FD09D00E9413072B
S1130E1007FC05D03EF4909581959F4F08957095F9
S1130E2061957F4F0895AA1BBB1B51E107C0AA1F00
S1130E30BB1FA617B70710F0A61BB70B881F991F77
S1130E405A95A9F780959095BC01CD010895BB27CB
S1130E504A3031F4992322F4BDE2909581959F4F55
S1130E600C943307BB27FB015527AA27880F991F2A
S1130E70AA1FA41710F0A41B83955051B9F7A05DC5
S1130E80AA3308F0A95DA193009779F7B111B19342
S1130E901192CB010C944C07DC01FC01672F71917A
S1130EA07723E1F7329704C07C916D93708362914C
S10F0EB0AE17BF07C8F30895F894FFCFF5
S1130EBC25004C69676874203D2000446179206DDD
S1130ECC6F6465004E69676874206D6F6465004DCE
S1130EDC6F69737475726531203D20004D6F6973B1
S1130EEC7475726532203D2000444854204572725A
S1130EFC6F720048756D6964697479203D20002E09
S10F0F0C0054656D70203D20004300007F
S9030000FC
