S01700004763634170706C69636174696F6E322E737265635A
S11300000C942A000C9400020C9431020C944700C6
S11300100C9447000C9447000C9447000C94470040
S11300200C9447000C9447000C9447000C94470030
S11300300C9447000C9447000C9447000C94470020
S11300400C9447000C9447000C9447000C94550200
S11300500C94470011241FBECFE5D4E0DEBFCDBF12
S113006010E0A0E6B0E0E4E3FCE002C005900D92ED
S1130070A639B107D9F720E0A6E9B0E001C01D9286
S1130080AD3AB207E1F70E948D020C9418060C9465
S1130090000098B39F70282F207F922B98BBC298A2
S11300A0C39A32E03A95F1F700C0C39896EF9A9557
S11300B0F1F728B32F7030E1839FC0011124822B04
S11300C088BBC39A82E08A95F1F700C0C39886E69C
S11300D09EE00197F1F70000089598B39F70282FD0
S11300E0207F922B98BBC29AC39A32E03A95F1F7DB
S11300F000C0C39896EF9A95F1F728B32F7030E1BA
S1130100839FC0011124822B88BBC39A82E08A9505
S1130110F1F700C0C39886E69EE00197F1F700006E
S113012008958FEF87BB2FEF8FE794E02150804035
S11301309040E1F700C0000083E30E94490082E39D
S11301400E94490088E20E9449008CE00E94490014
S113015081E00E94490086E69EE00197F1F70000E5
S113016082E80E9449000895CF93DF9300D0CDB771
S1130170DEB790E8998390EC9A83FE01E60FF11DB7
S11301809181890F0E9449000F900F90DF91CF91C8
S113019008950F931F93CF93FC018081882359F016
S11301A08F01C0E00E946D00CF5FF801EC0FF11DDC
S11301B080818111F7CFCF911F910F91089581E034
S11301C00E94490086E69EE00197F1F70000089539
S11301D0CF93DF93CDB7DEB760970FB6F894DEBF49
S11301E00FBECDBF0E94DF0060919F007091A00000
S11301F08091A1009091A2000E946104DC01CB01D6
S11302004AE0BE016F5F7F4F0E94E30580E690E005
S11302100E94C900CE0101960E94C90089E690E0BF
S11302200E94C90060960FB6F894DEBF0FBECDBF22
S1130230DF91CF910895CF93DF93CDB7DEB7609769
S11302400FB6F894DEBF0FBECDBF0E94DF006091F1
S11302509B0070919C0080919D0090919E000E9453
S11302606104DC01CB014AE0BE016F5F7F4F0E9455
S1130270E3058BE690E00E94C900CE0101960E943E
S1130280C90089E690E00E94C90060960FB6F89410
S1130290DEBF0FBECDBFDF91CF9108958E9A9698A1
S11302A08FEF9FE80197F1F700C00000969A089538
S11302B08E988699FECF869BFECF8699FECF0895B1
S11302C088E090E0869BFECF23E92A95F1F700C0F1
S11302D0869B07C020919A00220F216020939A00E8
S11302E005C020919A00220F20939A008699FECF90
S11302F0019741F780919A0008950E94DF00809150
S1130300A60090E02091A300AC01420F511D9A0178
S11303104091A500240F311D4091A700240F311DE9
S11303204091A40050E02417350749F060E080E0D4
S11303300E94B40082E790E00E94C90008954AE058
S113034068EA70E00E94E3058CE790E00E94C9002F
S113035088EA90E00E94C90088E890E00E94C90001
S11303608091A3004AE068EA70E090E00E94E3050F
S113037088EA90E00E94C90089E690E00E94C900E2
S11303808091A5004AE068EA70E090E00E94E305ED
S113039061E080E00E94B4008AE890E00E94C90015
S11303A088EA90E00E94C90088E890E00E94C900B1
S11303B08091A7004AE068EA70E090E00E94E305BB
S11303C088EA90E00E94C9008FED0E946D0082E9E6
S11303D090E00E94C90008958BB78F7B8BBF7894FF
S11303E02FEF8FE995E0215080409040E1F700C065
S11303F0000080E48ABF8BB780648BBFF8940895B3
S11304001F920F920FB60F9211242F933F934F9385
S11304105F936F937F938F939F93AF93BF93EF9368
S1130420FF938091980090919900019663E070E0A9
S11304300E94BB0590939900809398000E94EC0160
S1130440FF91EF91BF91AF919F918F917F916F91A8
S11304505F914F913F912F910F900FBE0F901F907E
S113046018951F920F920FB60F9211242F933F935A
S11304704F935F936F937F938F939F93AF93BF93A8
S1130480EF93FF930E94EC01FF91EF91BF91AF9125
S11304909F918F917F916F915F914F913F912F9198
S11304A00F900FBE0F901F9018951F920F920FB6CA
S11304B00F9211242F935F936F937F938F939F9346
S11304C0AF93BF938091960090919700019790937A
S11304D09700809396006AE070E00E94BB05892B28
S11304E079F48BB380588BBB2FEF8FE392E02150CC
S11304F080409040E1F700C000008BB380588BBB74
S1130500BF91AF919F918F917F916F915F912F9147
S11305100F900FBE0F901F90189580E181BB80E86B
S11305208ABB8BBB8DE083BF87E48CBF8AE085BF29
S113053090EC9BBF789491E29FBD8EBD88E190E0E2
S113054099BD88BD0E9491000E94DF0081E487B9B3
S113055087E886B900E010E0C1E00F2ECC24CA94ED
S1130560F3E0DF2EF02D0F2EF4E1EF2EF12CF02D21
S11305700F2EF4E6AF2EB12CF02D87B18C2787B95E
S113058086B18C2786B9369A349BFECF84B195B157
S1130590B601681B790B80E090E00E94970420E08C
S11305A030E048EC52E40E944E0520E030EC4FE786
S11305B054E40E94EF0360939F007093A000809323
S11305C0A1009093A20087B18C2787B986B18C27AC
S11305D086B9369A349BFECF349A64B175B180E003
S11305E090E00E94970420E030E048EC52E40E943E
S11305F04E0520E030EC4FE754E40E94EF039B01EA
S1130600AC0160E070E088EC92E40E947D036093AA
S11306109B0070939C0080939D0090939E00C80162
S1130620B7010E94BB05892BC1F40E944E010E94B0
S113063058010E9460018093A6000E94600180938B
S1130640A3000E9460018093A5000E946001809332
S1130650A7000E9460018093A4000F5F1F4F809148
S11306609800909199008130910541F08230910574
S113067041F0892B41F40E94E80005C00E947D01ED
S113068002C00E941B0120E030E040E251E460918E
S11306909F007091A0008091A1009091A2000E94FF
S11306A0EA0388236CF48091960090919700892B3B
S11306B021F4B0929700A092960089B7826089BF16
S11306C020E030E040EA51E460919F007091A00086
S11306D08091A1009091A2000E94490518161CF473
S11306E089B78D7F89BF2FEF8FE995E02150804036
S11306F09040E1F700C0000040CF5058BB27AA2724
S11307000E9495030C940F050E94010538F00E9485
S1130710080520F039F49F3F19F426F40C94FE04E4
S11307200EF4E095E7FB0C94F804E92F0E942005F1
S113073058F3BA17620773078407950720F079F412
S1130740A6F50C9442050EF4E0950B2EBA2FA02DBD
S11307500B01B90190010C01CA01A0011124FF276A
S1130760591B99F0593F50F4503E68F11A16F04065
S1130770A22F232F342F4427585FF3CF4695379564
S11307802795A795F0405395C9F77EF41F16BA0B29
S1130790620B730B840BBAF09150A1F0FF0FBB1FD7
S11307A0661F771F881FC2F70EC0BA0F621F731F20
S11307B0841F48F4879577956795B795F7959E3F7D
S11307C008F0B0CF9395880F08F09927EE0F97950E
S11307D0879508950E94D40408F481E008950E9446
S11307E003040C940F050E94080558F00E940105AB
S11307F040F029F45F3F29F00C94F80451110C9453
S113080043050C94FE040E94200568F39923B1F378
S1130810552391F3951B550BBB27AA276217730722
S1130820840738F09F5F5F4F220F331F441FAA1FB6
S1130830A9F335D00E2E3AF0E0E832D09150504072
S1130840E695001CCAF72BD0FE2F29D0660F771F20
S1130850881FBB1F261737074807AB07B0E809F006
S1130860BB0B802DBF01FF2793585F4F3AF09E3F8B
S1130870510578F00C94F8040C9443055F3FE4F3BD
S1130880983ED4F3869577956795B795F7959F5FCE
S1130890C9F7880F911D9695879597F90895E1E01A
S11308A0660F771F881FBB1F621773078407BA0779
S11308B020F0621B730B840BBA0BEE1F88F7E095D4
S11308C008950E9468046894B1110C944305089536
S11308D00E94280588F09F5798F0B92F9927B7519F
S11308E0B0F0E1F0660F771F881F991F1AF0BA95D0
S11308F0C9F714C0B13091F00E944205B1E00895E7
S11309000C944205672F782F8827B85F39F0B93FD8
S1130910CCF3869577956795B395D9F73EF4909582
S11309208095709561957F4F8F4F9F4F0895E89400
S113093009C097FB3EF490958095709561957F4F23
S11309408F4F9F4F9923A9F0F92F96E9BB279395D1
S1130950F695879577956795B795F111F8CFFAF4E1
S1130960BB0F11F460FF1BC06F5F7F4F8F4F9F4F12
S113097016C0882311F096E911C0772321F09EE870
S1130980872F762F05C0662371F096E8862F70E0D6
S113099060E02AF09A95660F771F881FDAF7880FB0
S11309A09695879597F90895990F0008550FAA0B06
S11309B0E0E8FEEF16161706E807F907C0F012166E
S11309C01306E407F50798F0621B730B840B950B71
S11309D039F40A2661F0232B242B252B21F40895C6
S11309E00A2609F4A140A6958FEF811D811D089563
S11309F097F99F6780E870E060E008959FEF80ECCE
S1130A00089500240A941616170618060906089570
S1130A1000240A9412161306140605060895092ED6
S1130A200394000C11F4882352F0BB0F40F4BF2B45
S1130A3011F460FF04C06F5F7F4F8F4F9F4F089585
S1130A4057FD9058440F551F59F05F3F71F047957B
S1130A50880F97FB991F61F09F3F79F08795089560
S1130A60121613061406551FF2CF4695F1DF08C07F
S1130A70161617061806991FF1CF8695710561059C
S1130A8008940895E894BB2766277727CB0197F944
S1130A9008950E94D40408F48FEF08950E9461051C
S1130AA00C940F050E94010538F00E94080520F0FF
S1130AB0952311F00C94F8040C94FE0411240C9466
S1130AC043050E94200570F3959FC1F3950F50E0F4
S1130AD0551F629FF001729FBB27F00DB11D639FEC
S1130AE0AA27F00DB11DAA1F649F6627B00DA11D92
S1130AF0661F829F2227B00DA11D621F739FB00D38
S1130B00A11D621F839FA00D611D221F749F3327A7
S1130B10A00D611D231F849F600D211D822F762F40
S1130B206A2F11249F5750409AF0F1F088234AF01D
S1130B30EE0FFF1FBB1F661F771F881F9150504089
S1130B40A9F79E3F510580F00C94F8040C944305DA
S1130B505F3FE4F3983ED4F3869577956795B79510
S1130B60F795E7959F5FC1F7FE2B880F911D96952A
S1130B70879597F9089597FB072E16F4009407D0EC
S1130B8077FD09D00E94CF0507FC05D03EF490956F
S1130B9081959F4F0895709561957F4F0895AA1B85
S1130BA0BB1B51E107C0AA1FBB1FA617B70710F054
S1130BB0A61BB70B881F991F5A95A9F78095909586
S1130BC0BC01CD010895BB274A3031F4992322F4A6
S1130BD0BDE2909581959F4F0C94EF05BB27FB01D7
S1130BE05527AA27880F991FAA1FA41710F0A41B22
S1130BF083955051B9F7A05DAA3308F0A95DA1937C
S1130C00009779F7B111B1931192CB010C940806B6
S1130C10DC01FC01672F71917723E1F7329704C05F
S1130C207C916D9370836291AE17BF07C8F30895EA
S1070C30F894FFCF62
S1130C344C69676874203D20002500534D53203DC2
S1130C442000444854204572726F720048756D69DF
S1130C5464697479203D20002E0054656D70203D34
S1090C6420004320000003
S9030000FC
