S01700004763634170706C69636174696F6E322E737265635A
S11300000C942A000C94D9010C940A020C94470015
S11300100C9447000C9447000C9447000C94470040
S11300200C9447000C9447000C9447000C94470030
S11300300C9447000C9447000C9447000C94470020
S11300400C9447000C9447000C9447000C942E0227
S11300500C94470011241FBECFE5D4E0DEBFCDBF12
S113006010E0A0E6B0E0E8E7FCE002C005900D92E5
S1130070A439B107D9F720E0A4E9B0E001C01D928A
S1130080AA3AB207E1F70E9466020C943A060C946D
S1130090000098B39F70282F207F922B98BBC298A2
S11300A0C39A32E03A95F1F700C0C39896EF9A9557
S11300B0F1F728B32F7030E1839FC0011124822B04
S11300C088BBC39A82E08A95F1F700C0C39886E69C
S11300D09EE00197F1F70000089598B39F70282FD0
S11300E0207F922B98BBC29AC39A32E03A95F1F7DB
S11300F000C0C39896EF9A95F1F728B32F7030E1BA
S1130100839FC0011124822B88BBC39A82E08A9505
S1130110F1F700C0C39886E69EE00197F1F700006E
S113012008958FEF87BB2FEF8FE794E02150804035
S11301309040E1F700C0000083E30E94490082E39D
S11301400E94490088E20E9449008CE00E94490014
S113015081E00E94490086E69EE00197F1F70000E5
S113016082E80E9449000895CF93DF9300D0CDB771
S1130170DEB790E8998390EC9A83FE01E60FF11DB7
S11301809181890F0E9449000F900F90DF91CF91C8
S113019008950F931F93CF93FC018081882359F016
S11301A08F01C0E00E946D00CF5FF801EC0FF11DDC
S11301B080818111F7CFCF911F910F91089581E034
S11301C00E94490086E69EE00197F1F70000089539
S11301D0EF92FF920F931F93CF93DF93CDB7DEB7C8
S11301E060970FB6F894DEBF0FBECDBF8C017B01C4
S11301F00E94DF004AE0BE016F5F7F4FC7010E948B
S11302000506C8010E94C900CE0101960E94C900DA
S113021080E690E00E94C90060960FB6F894DEBFB5
S11302200FBECDBFDF91CF911F910F91FF90EF9043
S113023008958E9A96988FEF9FE80197F1F700C082
S11302400000969A08958E988699FECF869BFECFDD
S11302508699FECF089588E090E0869BFECF23E93F
S11302602A95F1F700C0869B07C020919600220FC3
S113027021602093960005C020919600220F2093C0
S113028096008699FECF019741F7809196000895D4
S1130290CF93DF9300D000D01F92CDB7DEB70E947A
S11302A0DF008091A80090E02091A500AC01420FEE
S11302B0511D9A014091A700240F311D4091A900BE
S11302C0240F311D4091A60050E02417350729F072
S11302D082E690E00E94C90050C04AE0BE016F5F10
S11302E07F4F0E9405068CE690E00E94C900CE0173
S11302F001960E94C90088E790E00E94C90080919D
S1130300A5004AE0BE016F5F7F4F90E00E940506A2
S1130310CE0101960E94C90080E690E00E94C900C7
S11303208091A7004AE0BE016F5F7F4F90E00E947A
S1130330050661E080E00E94B4008AE790E00E9434
S1130340C900CE0101960E94C90088E790E00E948E
S1130350C9008091A9004AE0BE016F5F7F4F90E021
S11303600E940506CE0101960E94C9008FED0E94ED
S11303706D0082E890E00E94C9000F900F900F90EA
S11303800F900F90DF91CF9108958BB78F7B8BBF28
S113039078942FEF8FE995E0215080409040E1F769
S11303A000C0000080E48ABF8BB780648BBFF894E0
S11303B008951F920F920FB60F9211242F933F931B
S11303C04F935F936F937F938F939F93AF93BF9359
S11303D0EF93FF938091A3009091A400019663E0B2
S11303E070E00E94DD059093A4008093A3000E9416
S11303F0C501FF91EF91BF91AF919F918F917F9133
S11304006F915F914F913F912F910F900FBE0F907D
S11304101F9018951F920F920FB60F9211242F93CD
S11304203F934F935F936F937F938F939F93AF9378
S1130430BF93EF93FF930E94C501FF91EF91BF918A
S1130440AF919F918F917F916F915F914F913F9168
S11304502F910F900FBE0F901F9018951F920F921F
S11304600FB60F9211242F935F936F937F938F9303
S11304709F93AF93BF9380919400909195000197BF
S1130480909395008093940064E670E00E94DD05EB
S1130490892B79F48BB380588BBB2FEF8FE392E0D9
S11304A0215080409040E1F700C000008BB3805899
S11304B08BBBBF91AF919F918F917F916F915F9112
S11304C02F910F900FBE0F901F90189580E181BB64
S11304D081E28FBDCAE0CEBD88E190E099BD88BDC0
S11304E00E9491000E94DF008DE083BF87E48CBFEF
S11304F00E949C03C5BF80EC8BBF789481E487B9CC
S113050087E886B900E010E0C1E00F2ECC24CA943D
S1130510F3E0DF2EF02D99249394D0E0812C0F2E5C
S1130520F4E1EF2EF12CF02D0F2EF4E6AF2EB12CCA
S1130530F02D87B18C2787B986B18C2786B9369A76
S1130540349BFECF84B195B1B601681B790B80E072
S113055090E00E94B90420E030E048EC52E40E94AC
S1130560700520E030EC4FE754E40E9411042B01A5
S11305703C0160939F007093A0008093A10090932E
S1130580A20020E030E040E251E40E940C04882301
S11305907CF0292C3D2E20E030E048EC52E4C301ED
S11305A0B2010E946B0518162CF0282C312C02C0C5
S11305B0292C3D2E20929D0030929E0087B18C27DD
S11305C087B986B18C2786B9369A349BFECF349A84
S11305D064B175B180E090E00E94B90420E030E09D
S11305E048EC52E40E94700520E030EC4FE754E4FC
S11305F00E9411049B01AC0160E070E088EC92E47D
S11306000E949F032B013C016093990070939A0010
S113061080939B0090939C0020E030E040E251E402
S11306200E940C0488237CF0292C3D2E20E030E02D
S113063048EC52E4C301B2010E946B0518162CF079
S1130640282C312C02C0292C3D2E20929700309268
S11306509800C801B7010E94DD05892BC1F40E94EE
S113066019010E9423010E942B018093A8000E947B
S11306702B018093A5000E942B018093A7000E9468
S11306802B018093A9000E942B018093A6000F5F89
S11306901F4F8091A3009091A40081309105A1F097
S11306A082309105A1F0892B01F560919F00709132
S11306B0A0008091A1009091A2000E94830484E88C
S11306C090E00E94E80011C00E9448010EC06091B1
S11306D0990070919A0080919B0090919C000E94D7
S11306E083048DE890E00E94E80080919D00909141
S11306F09E00892B31F48091970090919800892B6A
S113070071F08091940090919500892B21F4B0921E
S11307109500A092940089B7826089BF03C089B70D
S11307208D7F89BF2FEF8FE995E021508040904065
S1130730E1F700C00000FDCED79ADF9A0895505823
S1130740BB27AA270E94B7030C9431050E942305F6
S113075038F00E942A0520F039F49F3F19F426F45A
S11307600C9420050EF4E095E7FB0C941A05E92F90
S11307700E94420558F3BA17620773078407950766
S113078020F079F4A6F50C9464050EF4E0950B2E94
S1130790BA2FA02D0B01B90190010C01CA01A001CF
S11307A01124FF27591B99F0593F50F4503E68F12A
S11307B01A16F040A22F232F342F4427585FF3CF6B
S11307C0469537952795A795F0405395C9F77EF43C
S11307D01F16BA0B620B730B840BBAF09150A1F085
S11307E0FF0FBB1F661F771F881FC2F70EC0BA0F0B
S11307F0621F731F841F48F4879577956795B79593
S1130800F7959E3F08F0B0CF9395880F08F099278D
S1130810EE0F9795879508950E94F60408F481E0F9
S113082008950E9425040C9431050E942A0558F06D
S11308300E94230540F029F45F3F29F00C941A0527
S113084051110C9465050C9420050E94420568F32F
S11308509923B1F3552391F3951B550BBB27AA2775
S113086062177307840738F09F5F5F4F220F331FAF
S1130870441FAA1FA9F335D00E2E3AF0E0E832D077
S113088091505040E695001CCAF72BD0FE2F29D07A
S1130890660F771F881FBB1F261737074807AB074C
S11308A0B0E809F0BB0B802DBF01FF2793585F4FC1
S11308B03AF09E3F510578F00C941A050C946505A6
S11308C05F3FE4F3983ED4F3869577956795B795A3
S11308D0F7959F5FC9F7880F911D9695879597F9AE
S11308E00895E1E0660F771F881FBB1F6217730727
S11308F08407BA0720F0621B730B840BBA0BEE1F3C
S113090088F7E09508950E948A046894B1110C94C4
S1130910650508950E944A0588F09F5798F0B92FFD
S11309209927B751B0F0E1F0660F771F881F991F20
S11309301AF0BA95C9F714C0B13091F00E94640559
S1130940B1E008950C946405672F782F8827B85F69
S113095039F0B93FCCF3869577956795B395D9F778
S11309603EF490958095709561957F4F8F4F9F4F82
S11309700895E89409C097FB3EF49095809570958E
S113098061957F4F8F4F9F4F9923A9F0F92F96E9D7
S1130990BB279395F695879577956795B795F1114C
S11309A0F8CFFAF4BB0F11F460FF1BC06F5F7F4FE9
S11309B08F4F9F4F16C0882311F096E911C07723FB
S11309C021F09EE8872F762F05C0662371F096E804
S11309D0862F70E060E02AF09A95660F771F881FD3
S11309E0DAF7880F9695879597F90895990F000877
S11309F0550FAA0BE0E8FEEF16161706E807F907ED
S1130A00C0F012161306E407F50798F0621B730B87
S1130A10840B950B39F40A2661F0232B242B252B08
S1130A2021F408950A2609F4A140A6958FEF811DAB
S1130A30811D089597F99F6780E870E060E008954C
S1130A409FEF80EC089500240A94161617061806E2
S1130A500906089500240A941216130614060506BE
S1130A600895092E0394000C11F4882352F0BB0F4F
S1130A7040F4BF2B11F460FF04C06F5F7F4F8F4FB2
S1130A809F4F089557FD9058440F551F59F05F3FED
S1130A9071F04795880F97FB991F61F09F3F79F09C
S1130AA087950895121613061406551FF2CF46951E
S1130AB0F1DF08C0161617061806991FF1CF8695A0
S1130AC07105610508940895E894BB276627772784
S1130AD0CB0197F908950E94F60408F48FEF089566
S1130AE00E9483050C9431050E94230538F00E946E
S1130AF02A0520F0952311F00C941A050C94200576
S1130B0011240C9465050E94420570F3959FC1F36E
S1130B10950F50E0551F629FF001729FBB27F00DA7
S1130B20B11D639FAA27F00DB11DAA1F649F6627FC
S1130B30B00DA11D661F829F2227B00DA11D621F4B
S1130B40739FB00DA11D621F839FA00D611D221F05
S1130B50749F3327A00D611D231F849F600D211DE9
S1130B60822F762F6A2F11249F5750409AF0F1F06C
S1130B7088234AF0EE0FFF1FBB1F661F771F881FD5
S1130B8091505040A9F79E3F510580F00C941A05EE
S1130B900C9465055F3FE4F3983ED4F3869577950E
S1130BA06795B795F795E7959F5FC1F7FE2B880F7B
S1130BB0911D9695879597F9089597FB072E16F43E
S1130BC0009407D077FD09D00E94F10507FC05D0F9
S1130BD03EF4909581959F4F0895709561957F4F50
S1130BE00895AA1BBB1B51E107C0AA1FBB1FA61770
S1130BF0B70710F0A61BB70B881F991F5A95A9F7C2
S1130C0080959095BC01CD010895BB274A3031F4FD
S1130C10992322F4BDE2909581959F4F0C9411067F
S1130C20BB27FB015527AA27880F991FAA1FA417C2
S1130C3010F0A41B83955051B9F7A05DAA3308F0B6
S1130C40A95DA193009779F7B111B1931192CB01EA
S1130C500C942A06DC01FC01672F71917723E1F7DC
S1130C60329704C07C916D9370836291AE17BF0775
S10B0C70C8F30895F894FFCFC6
S1130C782500444854204572726F720048756D69A6
S1130C8864697479203D20002E0054656D70203D00
S1130C98200043004C69676874203D2000534D537D
S1070CA8203D2000C7
S9030000FC
