:100000000C942A000C9447000C9447000C94470071
:100010000C9447000C9447000C9447000C94470044
:100020000C9447000C9447000C9447000C94470034
:100030000C9447000C9447000C9447000C94470024
:100040000C9447000C9447000C9447000C94470014
:100050000C94470011241FBECFE5D4E0DEBFCDBF16
:1000600010E0A0E6B0E0ECEAF5E002C005900D92E9
:10007000A43AB107D9F720E0A4EAB0E001C01D928C
:10008000A53BB207E1F70E94D6010C94D4020C9470
:10009000000098B39F70282F207F922B98BBC298A6
:1000A000C39A32E03A95F1F700C0C39896EF9A955B
:1000B000F1F728B32F7030E1839FC0011124822B08
:1000C00088BBC39A82E08A95F1F700C0C39886E6A0
:1000D0009EE00197F1F70000089598B39F70282FD4
:1000E000207F922B98BBC29AC39A32E03A95F1F7DF
:1000F00000C0C39896EF9A95F1F728B32F7030E1BE
:10010000839FC0011124822B88BBC39A82E08A9509
:10011000F1F700C0C39886E69EE00197F1F7000072
:1001200008958FEF87BB2FEF8FE794E02150804039
:100130009040E1F700C0000083E30E94490082E3A1
:100140000E94490088E20E9449008CE00E94490018
:1001500081E00E94490086E69EE00197F1F70000E9
:1001600082E80E9449000895CF93DF9300D0CDB775
:10017000DEB790E8998390EC9A83FE01E60FF11DBB
:100180009181890F0E9449000F900F90DF91CF91CC
:1001900008950F931F93CF93FC018081882359F01A
:1001A0008F01C0E00E946D00CF5FF801EC0FF11DE0
:1001B00080818111F7CFCF911F910F91089581E038
:1001C0000E94490086E69EE00197F1F7000008953D
:1001D0000F931F93CF93DF93CDB7DEB760970FB622
:1001E000F894DEBF0FBECDBF8C010E94DF002FEF61
:1001F00033E0201B310BADECBCEC0E9490028C0173
:10020000169507951695079516950795B80180E000
:1002100090E00E9453026093A6007093A700809321
:10022000A8009093A9004AE0BE016F5F7F4FC8010C
:100230000E949F0280E690E00E94C900CE010196D4
:100240000E94C90089E690E00E94C90060960FB63E
:10025000F894DEBF0FBECDBFDF91CF911F910F91FC
:1002600008950E94DF008091AE0090E02091AB00E5
:10027000AC01420F511D9A014091AD00240F311D78
:100280004091AF00240F311D4091AC0050E0241785
:10029000350749F060E080E00E94B4008BE690E012
:1002A0000E94C90008954AE060EB70E00E949F023E
:1002B00085E790E00E94C90080EB90E00E94C900B1
:1002C00081E890E00E94C9008091AB004AE060EBB9
:1002D00070E090E00E949F0280EB90E00E94C900D5
:1002E00089E690E00E94C9008091AD004AE060EB91
:1002F00070E090E00E949F0261E080E00E94B40004
:1003000083E890E00E94C90080EB90E00E94C90061
:1003100081E890E00E94C9008091AF004AE060EB64
:1003200070E090E00E949F0280EB90E00E94C90084
:100330008FED0E946D008BE890E00E94C900089547
:100340008E9A96988FEF9FE80197F1F700C0000012
:10035000969A08958E988699FECF869BFECF8699B1
:10036000FECF089588E090E0869BFECF23E92A9592
:10037000F1F700C0869B07C02091AA00220F2160E0
:100380002093AA0005C02091AA00220F2093AA0062
:100390008699FECF019741F78091AA0008950E94A7
:1003A000DF008EE890E00E94C900089580E181BBE3
:1003B00080E88BBB17BA83E088BB81E28FBD8AE0FF
:1003C0008EBD88E190E099BD88BD0E9491000E9499
:1003D000DF0080E487B986E886B9C2E0D0E0B09952
:1003E0000BC08091A4009091A5000197CAF4D0930E
:1003F000A500C093A4004BC0B19916C08091A40081
:100400009091A5000196833091052CF49093A5005E
:100410008093A40009C01092A5001092A40010C0FF
:100420009093A5008093A4008091A4009091A500D2
:100430008130910569F08230910549F1892B49F5A8
:10044000369A349BFECF84B195B10E94E80021C05A
:100450000E94A0010E94AA010E94B2018093AE00F6
:100460000E94B2018093AB000E94B2018093AD0064
:100470000E94B2018093AF000E94B2018093AC0051
:100480000E9431018FE990E00E94C90002C00E94E1
:10049000CF012FEF8FE796E1215080409040E1F7A8
:1004A00000C000009CCFE89409C097FB3EF49095F3
:1004B0008095709561957F4F8F4F9F4F9923A9F03D
:1004C000F92F96E9BB279395F695879577956795CC
:1004D000B795F111F8CFFAF4BB0F11F460FF1BC010
:1004E0006F5F7F4F8F4F9F4F16C0882311F096E9A3
:1004F00011C0772321F09EE8872F762F05C0662351
:1005000071F096E8862F70E060E02AF09A95660F09
:10051000771F881FDAF7880F9695879597F90895C2
:10052000A29FB001B39FC001A39F700D811D112434
:10053000911DB29F700D811D1124911D0895BB273F
:100540004A3031F4992322F4BDE2909581959F4F72
:100550000C94AB02BB27FB015527AA27880F991FD4
:10056000AA1FA41710F0A41B83955051B9F7A05DE2
:10057000AA3308F0A95DA193009779F7B111B1935F
:100580001192CB010C94C402DC01FC01672F719124
:100590007723E1F7329704C07C916D937083629169
:0C05A000AE17BF07C8F30895F894FFCF12
:1005AC004C69676874203D20002500444854204560
:1005BC0072726F720048756D6964697479203D20A0
:1005CC00002E0054656D70203D20004320004E4FDE
:1005DC00204441544120464F5220594F5521006F21
:0405EC007574000022
:00000001FF
