S01700004763634170706C69636174696F6E322E737265635A
S11300000C942A000C9419020C944A020C94470094
S11300100C9447000C9447000C9447000C94470040
S11300200C9447000C9447000C9447000C94470030
S11300300C9447000C9447000C9447000C94470020
S11300400C9447000C9447000C9447000C94470010
S11300500C94470011241FBECFE5D4E0DEBFCDBF12
S113006010E0A0E6B0E0E2E0FFE002C005900D92EF
S1130070AE3BB107D9F720E0AEEBB0E001C01D9272
S1130080AC3DB207E1F70E94A5020C947F070C94E3
S1130090000098B39F70282F207F922B98BBC298A2
S11300A0C39A32E03A95F1F700C0C39896EF9A9557
S11300B0F1F728B32F7030E1839FC0011124822B04
S11300C088BBC39A82E08A95F1F700C0C39886E69C
S11300D09EE00197F1F70000089598B39F70282FD0
S11300E0207F922B98BBC29AC39A32E03A95F1F7DB
S11300F000C0C39896EF9A95F1F728B32F7030E1BA
S1130100839FC0011124822B88BBC39A82E08A9505
S1130110F1F700C0C39886E69EE00197F1F700006E
S113012008958FEF87BB2FEF8FE794E02150804035
S11301309040E1F700C0000083E30E94490082E39D
S11301400E94490088E20E9449008CE00E94490014
S113015081E00E94490086E69EE00197F1F70000E5
S113016082E80E9449000895CF93DF9300D0CDB771
S1130170DEB790E8998390EC9A83FE01E60FF11DB7
S11301809181890F0E9449000F900F90DF91CF91C8
S113019008950F931F93CF93FC018081882359F016
S11301A08F01C0E00E946D00CF5FF801EC0FF11DDC
S11301B080818111F7CFCF911F910F91089581E034
S11301C00E94490086E69EE00197F1F70000089539
S11301D00F931F93CF93DF93CDB7DEB760970FB61E
S11301E0F894DEBF0FBECDBF8C01CB014AE0BE0147
S11301F06F5F7F4F0E944A07C8010E94C900CE0169
S113020001960E94C90082E690E00E94C9006096AF
S11302100FB6F894DEBF0FBECDBFDF91CF911F9113
S11302200F9108950E94DF006091D3007091D40073
S11302308091D5009091D6000E94C80584E690E094
S11302400E94E80061E080E00E94B4008091CF0049
S11302509091D000892B29F48DE690E00E94C9008A
S1130260089586E790E00E94C90008950E94DF0087
S11302706091CB007091CC008091CD009091CE0024
S11302800E94C80581E890E00E94E80061E080E0F7
S11302900E94B4006091C7007091C8008091C900A9
S11302A09091CA000E94C8058EE890E00E94E80080
S11302B008958E9A96988FEF9FE80197F1F700C002
S11302C00000969A08958E988699FECF869BFECF5D
S11302D08699FECF089588E090E0869BFECF23E9BF
S11302E02A95F1F700C0869B07C02091BE00220F1B
S11302F021602093BE0005C02091BE00220F2093F0
S1130300BE008699FECF019741F78091BE00089503
S1130310CF93DF9300D000D01F92CDB7DEB70E94F9
S1130320DF008091DA0090E02091D700AC01420F09
S1130330511D9A014091D900240F311D4091DB00D9
S1130340240F311D4091D80050E02417350729F0BF
S11303508BE990E00E94C90050C04AE0BE016F5F83
S11303607F4F0E944A0785EA90E00E94C900CE01AF
S113037001960E94C90081EB90E00E94C90080911F
S1130380D7004AE0BE016F5F7F4F90E00E944A07AA
S1130390CE0101960E94C90082E690E00E94C90045
S11303A08091D9004AE0BE016F5F7F4F90E00E94C8
S11303B04A0761E080E00E94B40083EB90E00E9471
S11303C0C900CE0101960E94C90081EB90E00E9411
S11303D0C9008091DB004AE0BE016F5F7F4F90E06F
S11303E00E944A07CE0101960E94C9008FED0E9427
S11303F06D008BEB90E00E94C9000F900F900F905E
S11304000F900F90DF91CF9108958BB78F7B8BBFA7
S113041078942FEF8FE995E0215080409040E1F7E8
S113042000C0000080E48ABF8BB780648BBFF8945F
S113043008951F920F920FB60F9211242F933F939A
S11304404F935F936F937F938F939F93AF93BF93D8
S1130450EF93FF938091600090916100019663E0B7
S113046070E00E94220790936100809360000E94D4
S11304700502FF91EF91BF91AF919F918F917F9171
S11304806F915F914F913F912F910F900FBE0F90FD
S11304901F9018951F920F920FB60F9211242F934D
S11304A03F934F935F936F937F938F939F93AF93F8
S11304B0BF93EF93FF9381E090E02091CF003091C0
S11304C0D000232B11F080E090E09093D000809333
S11304D0CF000E940502FF91EF91BF91AF919F91D0
S11304E08F917F916F915F914F913F912F910F90D9
S11304F00FBE0F901F9018958091D1009091D2005B
S1130500892B11F00E9466048091C1009091C20071
S1130510892B11F00E9480048091BF009091C0004B
S1130520892B11F00E948E048091C5009091C60021
S1130530892B11F00E94A8048091C3009091C400FB
S1130540892B11F00E94C60408950E94440480E19E
S113055081BB81E28FBDCAE0CEBD0E9491000E94A2
S1130560DF00C5BF80EC8BBF789481E487B987E84E
S113057086B9C12CD12C11E00F2EAA24AA94F3E041
S1130580BF2EF02D312C212CFF24F39400E00F2EEC
S1130590FAE58F2E912CF02D0F2EF3E0EF2EF02D97
S11305A087B1812787B986B1812786B9369A349B6A
S11305B0FECF84B195B1B501681B790B80E090E062
S11305C00E94FE0520E030E048EC52E40E94B506AB
S11305D020E030EC4FE754E40E9456052B013C0127
S11305E06093D3007093D4008093D5009093D60089
S11305F08091D1009091D200892B19F4C32DD22D72
S113060004C095E0C92F20E0D22F8091CF009091B3
S1130610D000892BD1F0B4016C1B7D0B072E000C8C
S1130620880B990B0E9400069B01AC01DF2DC02FA3
S1130630C301B2010E94B006181614F0D32DC22DC6
S1130640D093D100C093D2002DC0BE01615F7F4F13
S1130650072E000C880B990B0E9400069B01AC012D
S1130660C301B2010E9451058823B4F0B4016C1B8C
S11306707D0B072E000C880B990B0E9400069B0132
S1130680AC01CF2DD02FC301B2010E94B0061816C1
S11306902CF0C32DD22D02C0CF2DD02FC093D1006A
S11306A0D093D20087B1812787B986B1812786B9D3
S11306B0369A349BFECF349A64B175B180E090E0F1
S11306C00E94FE0520E030E048EC52E40E94B506AA
S11306D020E030EC4FE754E40E9456059B01AC0146
S11306E060E070E088EC92E40E94E4042B013C0199
S11306F06093CB007093CC008093CD009093CE0098
S113070020E030E040EA51E40E94510588237CF067
S1130710CF2DD02F20E030E044EB52E4C301B201EE
S11307200E94B00618162CF0C32DD22D02C0CF2D76
S1130730D02FC093C500D093C60087B18E2587B94A
S1130740369A349BFECF349A64B175B180E090E060
S11307500E94FE0520E030E048EC52E40E94B50619
S113076020E030EC4FE754E40E9456059B01AC01B5
S113077060E070E088EC92E40E94E4042B013C0108
S11307806093C7007093C8008093C9009093CA0017
S113079020E030E040EA51E40E94510588237CF0D7
S11307A0CF2DD02F20E030E044EB52E4C301B2015E
S11307B00E94B00618162CF0C32DD22D02C0CF2DE6
S11307C0D02FC093C300D093C40087B18E2587B9BE
S11307D0C60164E170E00E942207892B91F50E9412
S11307E059010E9463010E946B018093DA000E9408
S11307F06B018093D7000E946B018093D9000E9403
S11308006B018093DB000E946B018093D800809180
S1130810D90082512F2D902F853110F4232D922D44
S11308202093C1009093C2008091DA008F502F2D45
S1130830902F863510F4232D922D2093BF00909392
S1130840C0008FEFC81AD80A8091600090916100AF
S11308508130910541F08230910541F0892B41F4BA
S11308600E94120105C00E94880102C00E94360144
S11308700E947C029FEF2FE985E091502040804048
S1130880E1F700C000008CCEB89AC09A089538B33E
S113089021E0232728BB009759F020E030E0E3E370
S11308A0F7E03197F1F72F5F3F4F82179307B9F7BE
S11308B098B381E0892788BBFFEF2FE382E0F150F2
S11308C020408040E1F700C00000089584E690E0F5
S11308D00E9447048CE291E00E94470484E690E081
S11308E00E94470484E690E00E9447042FEF8FEBB8
S11308F096E0215080409040E1F700C00000089548
S11309008CE291E00E9447042FEF8FEB96E0215098
S113091080409040E1F700C00000089584E690E034
S11309200E94470484E690E00E94470484E690E035
S11309300E94470484E690E00E9447042FEF8FEB67
S113094096E0215080409040E1F700C000000895F7
S113095084E690E00E9447048CE291E00E94470400
S11309608CE291E00E9447048CE291E00E944704EB
S11309708CE291E00E9447042FEF8FEB96E0215028
S113098080409040E1F700C00000089584E690E0C4
S11309900E94470484E690E00E9447048CE291E0C0
S11309A00E9447048CE291E00E9447048CE291E0AB
S11309B00E9447042FEF8FEB96E021508040904037
S11309C0E1F700C0000008955058BB27AA270E94F1
S11309D0FC040C9476060E94680638F00E946F06A8
S11309E020F039F49F3F19F426F40C9465060EF4B4
S11309F0E095E7FB0C945F06E92F0E94870658F305
S1130A00BA17620773078407950720F079F4A6F5EF
S1130A100C94A9060EF4E0950B2EBA2FA02D0B0111
S1130A20B90190010C01CA01A0011124FF27591B2F
S1130A3099F0593F50F4503E68F11A16F040A22F35
S1130A40232F342F4427585FF3CF469537952795A6
S1130A50A795F0405395C9F77EF41F16BA0B620BA5
S1130A60730B840BBAF09150A1F0FF0FBB1F661FEC
S1130A70771F881FC2F70EC0BA0F621F731F841F2F
S1130A8048F4879577956795B795F7959E3F08F055
S1130A90B0CF9395880F08F09927EE0F9795879517
S1130AA008950E943B0608F481E008950E946A05B7
S1130AB00C9476060E946F0658F00E94680640F077
S1130AC029F45F3F29F00C945F0651110C94AA0697
S1130AD00C9465060E94870668F39923B1F35523A5
S1130AE091F3951B550BBB27AA276217730784073D
S1130AF038F09F5F5F4F220F331F441FAA1FA9F3D3
S1130B0035D00E2E3AF0E0E832D091505040E695C0
S1130B10001CCAF72BD0FE2F29D0660F771F881F21
S1130B20BB1F261737074807AB07B0E809F0BB0B14
S1130B30802DBF01FF2793585F4F3AF09E3F510528
S1130B4078F00C945F060C94AA065F3FE4F3983E99
S1130B50D4F3869577956795B795F7959F5FC9F711
S1130B60880F911D9695879597F90895E1E0660F92
S1130B70771F881FBB1F621773078407BA0720F00B
S1130B80621B730B840BBA0BEE1F88F7E095089574
S1130B900E94CF056894B1110C94AA0608950E948E
S1130BA08F0688F09F5798F0B92F9927B751B0F066
S1130BB0E1F0660F771F881F991F1AF0BA95C9F7DD
S1130BC014C0B13091F00E94A906B1E008950C94CC
S1130BD0A906672F782F8827B85F39F0B93FCCF37F
S1130BE0869577956795B395D9F73EF4909580955A
S1130BF0709561957F4F8F4F9F4F0895E89409C07A
S1130C0097FB3EF490958095709561957F4F8F4F3B
S1130C109F4F9923A9F0F92F96E9BB279395F69551
S1130C20879577956795B795F111F8CFFAF4BB0FCF
S1130C3011F460FF1BC06F5F7F4F8F4F9F4F16C033
S1130C40882311F096E911C0772321F09EE8872FBD
S1130C50762F05C0662371F096E8862F70E060E079
S1130C602AF09A95660F771F881FDAF7880F9695F2
S1130C70879597F90895990F0008550FAA0BE0E896
S1130C80FEEF16161706E807F907C0F0121613064A
S1130C90E407F50798F0621B730B840B950B39F48A
S1130CA00A2661F0232B242B252B21F408950A26F0
S1130CB009F4A140A6958FEF811D811D089597F930
S1130CC09F6780E870E060E008959FEF80EC0895EE
S1130CD000240A9416161706180609060895002417
S1130CE00A9412161306140605060895092E039491
S1130CF0000C11F4882352F0BB0F40F4BF2B11F405
S1130D0060FF04C06F5F7F4F8F4F9F4F089557FD63
S1130D109058440F551F59F05F3F71F04795880F65
S1130D2097FB991F61F09F3F79F0879508951216FC
S1130D3013061406551FF2CF4695F1DF08C01616A8
S1130D4017061806991FF1CF869571056105089459
S1130D500895E894BB2766277727CB0197F9089570
S1130D600E943B0608F48FEF08950E94C8060C9475
S1130D7076060E94680638F00E946F0620F09523DC
S1130D8011F00C945F060C94650611240C94AA06C9
S1130D900E94870670F3959FC1F3950F50E0551F8D
S1130DA0629FF001729FBB27F00DB11D639FAA27BC
S1130DB0F00DB11DAA1F649F6627B00DA11D661F0B
S1130DC0829F2227B00DA11D621F739FB00DA11D2C
S1130DD0621F839FA00D611D221F749F3327A00DE6
S1130DE0611D231F849F600D211D822F762F6A2F82
S1130DF011249F5750409AF0F1F088234AF0EE0FE7
S1130E00FF1FBB1F661F771F881F91505040A9F713
S1130E109E3F510580F00C945F060C94AA065F3F38
S1130E20E4F3983ED4F3869577956795B795F7954F
S1130E30E7959F5FC1F7FE2B880F911D96958795C7
S1130E4097F9089597FB072E16F4009407D077FDC1
S1130E5009D00E94360707FC05D03EF49095819591
S1130E609F4F0895709561957F4F0895AA1BBB1BF2
S1130E7051E107C0AA1FBB1FA617B70710F0A61B96
S1130E80B70B881F991F5A95A9F780959095BC01B7
S1130E90CD010895BB274A3031F4992322F4BDE2F1
S1130EA0909581959F4F0C945607BB27FB015527BE
S1130EB0AA27880F991FAA1FA41710F0A41B8395B3
S1130EC05051B9F7A05DAA3308F0A95DA19300972A
S1130ED079F7B111B1931192CB010C946F07DC0136
S1130EE0FC01672F71917723E1F7329704C07C915D
S1130EF06D9370836291AE17BF07C8F30895F89499
S1050F00FFCF1D
S1130F02020025004C69676874203D200044617921
S1130F12206D6F6465004E69676874206D6F646547
S1130F22004D6F69737475726531203D20004D6FF9
S1130F3269737475726532203D200044485420451B
S1130F4272726F720048756D6964697479203D200C
S1110F52002E0054656D70203D200043000009
S9030000FC
